:10000000000003308A00B02BFF00030E8301A10023
:100010000A08A0008A010408A2007708A300780853
:10002000A4007908A5007A08A600831383128B1E0A
:100030001B280B1930288B1D1F280B18332822086A
:1000400084002308F7002408F8002508F900260892
:10005000FA0020088A00210E8300FF0E7F0E09009F
:100060008A110A1236288A110A12192906308100CB
:10007000B40A0319B50A3408FA3C031D4928B50827
:10008000031D492808308606B60A0319B70AB501C8
:10009000B4010B118A110A121F280B08CB008B1315
:1000A000831603178C170C14000000000318802817
:1000B00083120C087F390313CC0003170D080313B8
:1000C000CD0003170F080313CE004C080C1E662842
:1000D00099004D0803178D0003134E0803178F0076
:1000E00083168C170C140000000083120313CA0B34
:1000F0007A287D28831603178028A02883160317E3
:1001000083120C0D0E0D7F390313CC0003170D085D
:100110000313CD0003170F080313CE004C080C1E69
:100120008F2899004D0803178D0003134E080317FD
:100130008F008D0A03198F0A03100313CA0B50286E
:10014000CB1B8B170800D2010408D1005210831B6F
:100150005214CB1FB328D117511ED10ACA09CB099B
:10016000CA0A0319CB0A4B0EF038CD00CD07E23E88
:10017000CE00323ED0004B080F39CE07CE07D00755
:10018000E93ECF00CF07CF074A0E0F39CF07D00780
:10019000CF0DD00DD009D00D4A080F39D007CD0DA5
:1001A0000730CC000A30D007CF03031CD328CF0779
:1001B000CE03031CD728CE07CD03031CDB28CD07B5
:1001C000CC03031CDF284C30840083130730510517
:1001D000511384035105031DF428511A840A511A3E
:1001E000F4282030F7001129840750300402031945
:1001F00051170008F700031D0529511B0529511A45
:100200001529D119052920301029D11F0D292D308C
:10021000F70084035113D1131129D1155112303035
:10022000F70777080C1E12299900840A511FF52838
:100230000800061E40298610B608031D2229B708AB
:1002400003193F296A3003178D0001308F00031016
:100250000A300313CA004D20103084003708CB0049
:100260003608CA00A320703003178D0001308F00BC
:1002700003140D300313CA004D20B701B6016629DF
:10028000061A66298614B608031D4929B7080319FA
:100290006629783003178D0001308F0003100D3070
:1002A0000313CA004D20103084003708CB003608F5
:1002B000CA00A320803003178D0001308F00031087
:1002C0000D300313CA004D20B701B6010B108A117F
:1002D0000A121F284236EF38F53261326F10252698
:1002E0006410D332E73A6E32EF3920050D1000006A
:1002F000C4327331EC37F13AE530E437A0124C32B6
:10030000A029E5337537E43773108A0620008E3054
:10031000F7003908F8003808F900FA01F808031D59
:100320009B297908F800F9010830F702F808031D45
:100330009B29F701A3290310F81BA229F90DF80D39
:10034000F7039B29F8138A110A120D2C3808031998
:10035000162AC0003C080319162AC0070318B7293B
:100360007F30C002031C162A0319162ABB298130CC
:10037000C0070318162A4008F700F801F901FA012E
:100380003908C400C4173A08C3003B08C20018303B
:10039000C000C101421CE4293F08FA07031CD6290A
:1003A000F90A031DD629F80A0319C1173E08F907EF
:1003B000031CDD29F80A0319C1173D08BA00BA1752
:1003C0003A08F8070318C117C10DF80CF90CFA0C1C
:1003D000C40CC30CC20C0310C00BC9290130F707B1
:1003E0000318162AF81BFB29C40DFA0DF90DF80D98
:1003F000F7030319162AC41F0C2AFA0A031D0C2A34
:10040000F90A031D0C2AF80A031D0C2AF80CF90C32
:10041000FA0CF70A0319162A3908C1003D08C1066B
:10042000C11F142AF8171A2AF8131A2AF701F8011B
:10043000F901FA0108003C080319E02AC800400845
:100440000319E02AC802031C2A2A7F30C8070318B0
:10045000E02A302A8130C802031CE02A0319E02A6E
:100460004808F700F801F901FA01C7013D08C60084
:10047000C6173E08C5003F08C4001930C80043082D
:10048000C4020318532A0130C5020318532AC602B6
:100490000318532AC7020318532AC70AC60AC50AF3
:1004A0004308C407852A4208C50203186E2A013092
:1004B000C60203186E2AC70203186E2AC70AC60AA4
:1004C0004208C5074308C407031C852AC50A031D43
:1004D000852AC60A031D852AC70A852A410880384D
:1004E000C6020318842A0130C7020318842AC70AE7
:1004F00041088038C6074208C507031C622AC60A9D
:10050000031D622AC70A622A7A14C80B882A932A12
:100510000310C40DC50DC60DC70D0310FA0DF90D5E
:10052000F80DC90D3F2A491C9B2A0310F80CF90C41
:10053000FA0CC90C9E2AF7030319E02AC91BC72A23
:100540000310C40DC50DC60DC70D4308C402031822
:10055000B32A0130C5020318B32AC6020318B32A0E
:10056000C702031CD62A4208C5020318BE2A01305E
:10057000C6020318BE2AC702031CD62A41088038C7
:10058000C6020318C72A0130C702031CD62AFA0A7A
:10059000031DD62AF90A031DD62AF80A031DD62AF6
:1005A000F70A0319E02AF80CF90CFA0C3D08C80008
:1005B0004108C806C81FDE2AF817E42AF813E42AFF
:1005C000F701F801F901FA018A110A123C2C83168D
:1005D00012088312BA00BB01BA0A0319BB0A03103E
:1005E000BA0DBB0DBA0DBB0DBE01BD013B08BC0071
:1005F0003A08BB00C201C1013908C0003808BF0079
:100600002030C700C301C401C501C6013E08FA007D
:100610003D08F9003C08F8003B08F7000310771C80
:100620001F2B3F08C30740080318400FC4074108A9
:100630000318410FC50742080318420FC607C60C2E
:10064000C50CC40CC30CFA0CF90CF80CF70CC70B56
:100650000E2B7A08BE007908BD007808BC00770828
:10066000BB00C201C1010330C000E830BF008318E5
:100670003C2B433084008313F701F801F901FA01A0
:10068000C301C401C501C6014208410440043F043E
:1006900003197A2B2030C7000310BB0DBC0DBD0D14
:1006A000BE0DC30DC40DC50DC60D42084602031D87
:1006B000632B41084502031D632B40084402031DC0
:1006C000632B3F084302031C742B3F08C3024008FE
:1006D000031C400FC4024108031C410FC50242081D
:1006E000031C420FC6020314F70DF80DF90DFA0DA5
:1006F000C70B4C2B43088000840A44088000840AFE
:1007000045088000840A460880007708F900F80C44
:10071000F70CF80CF70C77089500F90DF90DF90DA9
:10072000F90DCF3097053030790597048A110A12F8
:10073000602C39308400831300080319AD2B01307D
:10074000F800F701F70BA22BF80BA12B4A30F700AA
:10075000F70BA82BAB2B800B9F2B8A110A12672C4F
:1007600003081F398300193083169900A6309800BA
:10077000903083129800193083169200043083124F
:100780009200023095001C309700A701B501B4011A
:10079000B701B60183161F149F141F159F11073050
:1007A0009C008313103086000130850000308700E4
:1007B00083128601850187018B158B16C0308B044F
:1007C00083161F109F141F159F151F1383121F13CD
:1007D0009F1783169F1783121F1483160108C039B1
:1007E000033881000630831281000030F8001F08B2
:1007F000C73978049F000230F700F70BFD2B002C5F
:1008000000001F151F19022C1E08FA0083161E086F
:100810008312B8001E08B90087297A08AB0079084E
:10082000AA007808A9007708A8002B08BB002A08AE
:10083000BA002908B9002808B800BF01BE0120305D
:10084000BD008130BC00A6217A08BB007908BA003F
:100850007808B9007708B8007A08BF007908BE00A8
:100860007808BD007708BC00C301C030C2007F30EB
:10087000C1008830C0001B2A7A08AF007908AE009A
:100880007808AD007708AC002F08BB002E08BA002E
:100890002D08B9002C08B800BF01BE014830BD00CA
:1008A0008630BC00A6217A08B3007908B200780827
:1008B000B1007708B0003108B9003008B800E72A65
:1008C000043086060230B800FA30B900992BB80B14
:0608D000642CF52B6A2CDC
:02400E00393740
:00000001FF
;PIC16F877A
;CRC=028C  CREATED="08-oct.-14 14:05"
