:1000000003308A00A02B0000FF00030E8301A10033
:100010000A08A0008A010408A2007708A300780853
:10002000A4007908A5007A08A600831383128B1E0A
:100030001B280B1930288B1D1F280B18332822086A
:1000400084002308F7002408F8002508F900260892
:10005000FA0020088A00210E8300FF0E7F0E09009F
:100060008A110A1236288A110A121C29833081004B
:100070000130B806B40A0319B50A3408403C031D20
:100080004C2835081F3C031D4C2808308606B60A4C
:100090000319B70AB501B4010B118A110A121F28FE
:1000A0000B08CC008B13831603178C170C1400005D
:1000B00000000318832883120C087F390313CD0036
:1000C00003170D080313CE0003170F080313CF0007
:1000D0004D080C1E692899004E0803178D00031364
:1000E0004F0803178F0083168C170C1400000000B4
:1000F00083120313CB0B7D288028831603178328D4
:10010000A3288316031783120C0D0E0D7F390313DA
:10011000CD0003170D080313CE0003170F080313B8
:10012000CF004D080C1E922899004E0803178D0031
:1001300003134F0803178F008D0A03198F0A03104A
:100140000313CB0B5328CC1B8B170800D3010408D7
:10015000D2005310831B5314CC1FB628D217521E43
:10016000D20ACB09CC09CB0A0319CC0A4C0EF038C1
:10017000CE00CE07E23ECF00323ED1004C080F3910
:10018000CF07CF07D107E93ED000D007D0074B0EED
:100190000F39D007D107D00DD10DD109D10D4B08A2
:1001A0000F39D107CE0D0730CD000A30D107D0036B
:1001B000031CD628D007CF03031CDA28CF07CE03B1
:1001C000031CDE28CE07CD03031CE2284D3084003B
:1001D000831307305205521384035205031DF72879
:1001E000521A840A521AF7282030F700142984077B
:1001F00051300402031952170008F700031D0829A3
:10020000521B0829521A1829D219082920301329FB
:10021000D21F10292D30F70084035213D213142952
:10022000D21552123030F70777080C1E15299900A5
:10023000840A521FF8280800061E452986108514D6
:100240000511B608031D2729B70803194429713081
:1002500003178D0001308F0003100A300313CB0009
:100260005020103084003708CC003608CB00A62080
:10027000773003178D0001308F0003140D30031306
:10028000CB005020B701B6016D29061A6D298614DE
:1002900085100511B608031D5029B70803196D29EB
:1002A0007F3003178D0001308F0003100D300313D2
:1002B000CB005020103084003708CC003608CB002B
:1002C000A620873003178D0001308F0003100D30FA
:1002D0000313CB005020B701B6010B108A110A128C
:1002E0001F284236EF38F53261326F102526641030
:1002F000D332E73A6E32EF3920050D100000C432D8
:100300007331EC37F13AE530E437A0124C32A029D2
:10031000E5337537E43773108A0620008E30F70016
:100320003A08F8003908F900FA01F808031DA22973
:100330007908F800F9010830F702F808031DA2292E
:10034000F701AA290310F81BA929F90DF80DF703E5
:10035000A229F8138A110A12FE2B390803191D2A43
:10036000C1003D0803191D2AC1070318BE297F30AB
:10037000C102031C1D2A03191D2AC2298130C1078D
:1003800003181D2A4108F700F801F901FA013A089B
:10039000C500C5173B08C4003C08C3001830C100A5
:1003A000C201431CEB294008FA07031CDD29F90AA6
:1003B000031DDD29F80A0319C2173F08F907031CBA
:1003C000E429F80A0319C2173E08BB00BB173B0813
:1003D000F8070318C217C20DF80CF90CFA0CC50C7B
:1003E000C40CC30C0310C10BD0290130F70703184C
:1003F0001D2AF81B022AC50DFA0DF90DF80DF70399
:1004000003191D2AC51F132AFA0A031D132AF90A04
:10041000031D132AF80A031D132AF80CF90CFA0C11
:10042000F70A03191D2A3A08C2003E08C206C21F75
:100430001B2AF817212AF813212AF701F801F901DC
:10044000FA0108003D080319E72AC9004108031909
:10045000E72AC902031C312A7F30C9070318E72A9B
:10046000372A8130C902031CE72A0319E72A490801
:10047000F700F801F901FA01C8013E08C700C717E3
:100480003F08C6004008C5001930C9004408C5022D
:1004900003185A2A0130C60203185A2AC702031841
:1004A0005A2AC80203185A2AC80AC70AC60A4408A0
:1004B000C5078C2A4308C6020318752A0130C702F3
:1004C0000318752AC8020318752AC80AC70A430800
:1004D000C6074408C507031C8C2AC60A031D8C2ABC
:1004E000C70A031D8C2AC80A8C2A42088038C70212
:1004F00003188B2A0130C80203188B2AC80A420845
:100500008038C7074308C607031C692AC70A031DAA
:10051000692AC80A692A7A14C90B8F2A9A2A0310F1
:10052000C50DC60DC70DC80D0310FA0DF90DF80D58
:10053000CA0D462A4A1CA22A0310F80CF90CFA0C20
:10054000CA0CA52AF7030319E72ACA1BCE2A0310EF
:10055000C50DC60DC70DC80D4408C5020318BA2A3B
:100560000130C6020318BA2AC7020318BA2AC80201
:10057000031CDD2A4308C6020318C52A0130C7023E
:100580000318C52AC802031CDD2A42088038C702A6
:100590000318CE2A0130C802031CDD2AFA0A031D03
:1005A000DD2AF90A031DDD2AF80A031DDD2AF70AF0
:1005B0000319E72AF80CF90CFA0C3E08C9004208A6
:1005C000C906C91FE52AF817EB2AF813EB2AF70129
:1005D000F801F901FA018A110A122D2C831612086A
:1005E0008312BB00BC01BB0A0319BC0A0310BB0D7C
:1005F000BC0DBB0DBC0DBF01BE013C08BD003B08DE
:10060000BC00C301C2013A08C1003908C000203053
:10061000C800C401C501C601C7013F08FA003E0871
:10062000F9003D08F8003C08F7000310771C262B62
:100630004008C40741080318410FC50742080318C2
:10064000420FC60743080318430FC707C70CC60C61
:10065000C50CC40CFA0CF90CF80CF70CC80B152BD4
:100660007A08BF007908BE007808BD007708BC0092
:10067000C301C2010330C100E830C0008318432B1E
:10068000443084008313F701F801F901FA01C40131
:10069000C501C601C70143084204410440040319CF
:1006A000812B2030C8000310BC0DBD0DBE0DBF0D49
:1006B000C40DC50DC60DC70D43084702031D6A2BA7
:1006C00042084602031D6A2B41084502031D6A2B9E
:1006D00040084402031C7B2B4008C4024108031C51
:1006E000410FC5024208031C420FC6024308031C07
:1006F000430FC7020314F70DF80DF90DFA0DC80BDF
:10070000532B44088000840A45088000840A460868
:100710008000840A470880007708F900F80CF70C7D
:10072000F80CF70C77089500F90DF90DF90DF90D96
:10073000CF3097053030790597048A110A12512C71
:1007400003081F398300193083169900A6309800DA
:10075000903083129800193083169200043083126F
:100760009200023095001C309700A701B501B4013A
:10077000B701B601381083161F149F141F159F115F
:1007800007309C0083130130850010308600003054
:10079000870083128501860187018B158B16C03077
:1007A0008B0483161F109F141F159F151F13831290
:1007B0001F139F1783169F1383121F14831601089C
:1007C000C739083881008330831281000030F80077
:1007D0001F08C73978049F000230F700F70BEE2B93
:1007E000F12B00001F151F19F32B1E08FA008316AA
:1007F0001E088312B9001E08BA008E297A08AB00C1
:100800007908AA007808A9007708A8002B08BC007E
:100810002A08BB002908BA002808B900C001BF0196
:100820002030BE008130BD00AD217A08BC007908BF
:10083000BB007808BA007708B9007A08C0007908C8
:10084000BF007808BE007708BD00C401C030C300F7
:100850007F30C2008830C100222A7A08AF007908B0
:10086000AE007808AD007708AC002F08BC002E0859
:10087000BB002D08BA002C08B900C001BF014830E8
:10088000BE008630BD00AD217A08B3007908B20001
:100890007808B1007708B0003108BA003008B90014
:1008A000EE2A381C552C0714562C0710E62B630033
:02400E00313F40
:00000001FF
;PIC16F877A
;CRC=2569  CREATED="08-oct.-14 23:45"
