:1000000003308A00D32B0000FF00030E8301A10000
:100010000A08A0008A010408A2007708A300780853
:10002000A4007908A5007A08A600831383128B1E0A
:100030001B280B1930288B1D1F280B18332822086A
:1000400084002308F7002408F8002508F900260892
:10005000FA0020088A00210E8300FF0E7F0E09009F
:100060008A110A1236288A110A1247298330810020
:10007000B40A0319B50A3408403C031D4D2835085D
:100080001F3C031D4D2883168611083083128606F7
:10009000B60A0319B70AB501B4010B118A110A1285
:1000A0001F2883160510831205100830F800582801
:1000B0000000F8176928F813D30C03180514031C63
:1000C0000510781769287813F80B5C28672800005A
:1000D00005141C308400840B6B286E28F81B5B28E9
:1000E000781B632808000B08CB008B1383160317BB
:1000F0008C170C14000000000318A52883120C08AC
:100100007F390313CC0003170D080313CD00031729
:100110000F080313CE004C08D30051204D080317DD
:100120008D0003134E0803178F0083168C170C14D1
:100130000000000083120313CA0B9F28A228831615
:100140000317A528C4288316031783120C0D0E0D60
:100150007F390313CC0003170D080313CD000317D9
:100160000F080313CE004C08D30051204D0803178D
:100170008D0003134E0803178F008D0A03198F0A91
:1001800003100313CA0B7628CB1B8B170800D20170
:100190000408D1005210831B5214CB1FD728D1174B
:1001A000511ED10ACA09CB09CA0A0319CB0A4B0E40
:1001B000F038CD00CD07E23ECE00323ED0004B08F5
:1001C0000F39CE07CE07D007E93ECF00CF07CF07C4
:1001D0004A0E0F39CF07D007CF0DD00DD009D00D63
:1001E0004A080F39D007CD0D0730CC000A30D007B0
:1001F000CF03031CF728CF07CE03031CFB28CE0731
:10020000CD03031CFF28CD07CC03031C03294C306E
:100210008400831307305105511384035105031DD6
:100220001829511A840A511A18292030F700352943
:10023000840750300402031951170008F700031D0A
:100240002929511B2929511A4329D119292920303B
:100250003429D11F31292D30F70084035113D113D4
:100260003529D11551123030F707CB010408CA00E7
:100270004B10831B4B147708D30051204A0884008D
:1002800083134B188317840A511F192908008316FA
:1002900006168312061E7429831686108312861092
:1002A000B608031D5629B70803197329A43003178C
:1002B0008D0001308F0003100A300313CA00732031
:1002C000103084003708CB003608CA00C720AA3097
:1002D00003178D0001308F0003140D300313CA0083
:1002E0007320B701B601A029831606168312061AD9
:1002F000A0298316861083128614B608031D83294D
:10030000B7080319A029B23003178D0001308F0000
:1003100003100D300313CA00732010308400370817
:10032000CB003608CA00C720BA3003178D00013051
:100330008F0003100D300313CA007320B701B601FC
:100340000B108A110A121F284236EF38F53261323B
:100350006F1025266410D332E73A6E32EF3920054C
:100360000D100000C4327331EC37F13AE530E43758
:10037000A0124C32A029E5337537E43773108A0692
:1003800020008E30F7003908F8003808F900FA012B
:10039000F808031DD5297908F800F9010830F7029B
:1003A000F808031DD529F701DD290310F81BDC2906
:1003B000F90DF80DF703D529F8138A110A12492C03
:1003C00038080319502AC0003C080319502AC007F6
:1003D0000318F1297F30C002031C502A0319502A48
:1003E000F5298130C0070318502A4008F700F801AA
:1003F000F901FA013908C400C4173A08C3003B08E0
:10040000C2001830C000C101421C1E2A3F08FA0772
:10041000031C102AF90A031D102AF80A0319C11730
:100420003E08F907031C172AF80A0319C1173D08EB
:10043000BA00BA173A08F8070318C117C10DF80C2B
:10044000F90CFA0CC40CC30CC20C0310C00B032A29
:100450000130F7070318502AF81B352AC40DFA0D8E
:10046000F90DF80DF7030319502AC41F462AFA0A9A
:10047000031D462AF90A031D462AF80A031D462AC7
:10048000F80CF90CFA0CF70A0319502A3908C100C4
:100490003D08C106C11F4E2AF817542AF813542AE2
:1004A000F701F801F901FA0108003C0803191A2BB9
:1004B000C800400803191A2BC802031C642A7F30A5
:1004C000C80703181A2B6A2A8130C802031C1A2B8A
:1004D00003191A2B4808F700F801F901FA01C701BE
:1004E0003D08C600C6173E08C5003F08C4001930C5
:1004F000C8004308C40203188D2A0130C50203183E
:100500008D2AC60203188D2AC70203188D2AC70A2E
:10051000C60AC50A4308C407BF2A4208C502031811
:10052000A82A0130C6020318A82AC7020318A82A5D
:10053000C70AC60A4208C5074308C407031CBF2AE6
:10054000C50A031DBF2AC60A031DBF2AC70ABF2A40
:1005500041088038C6020318BE2A0130C7020318BA
:10056000BE2AC70A41088038C6074208C507031CCF
:100570009C2AC60A031D9C2AC70A9C2A7A14C80B07
:10058000C22ACD2A0310C40DC50DC60DC70D031018
:10059000FA0DF90DF80DC90D792A491CD52A031059
:1005A000F80CF90CFA0CC90CD82AF70303191A2B0A
:1005B000C91B012B0310C40DC50DC60DC70D430883
:1005C000C4020318ED2A0130C5020318ED2AC60241
:1005D0000318ED2AC702031C102B4208C50203189A
:1005E000F82A0130C6020318F82AC702031C102B90
:1005F00041088038C6020318012B0130C702031CD2
:10060000102BFA0A031D102BF90A031D102BF80AF0
:10061000031D102BF70A03191A2BF80CF90CFA0C0E
:100620003D08C8004108C806C81F182BF8171E2B24
:10063000F8131E2BF701F801F901FA018A110A12C9
:10064000782C831612088312BA00BB01BA0A031968
:10065000BB0A0310BA0DBB0DBA0DBB0DBE01BD0127
:100660003B08BC003A08BB00C201C1013908C00008
:100670003808BF002030C700C301C401C501C6014E
:100680003E08FA003D08F9003C08F8003B08F70076
:100690000310771C592B3F08C30740080318400F6D
:1006A000C40741080318410FC50742080318420F49
:1006B000C607C60CC50CC40CC30CFA0CF90CF80C1C
:1006C000F70CC70B482B7A08BE007908BD007808E4
:1006D000BC007708BB00C201C1010330C000E83094
:1006E000BF008318762B433084008313F701F80191
:1006F000F901FA01C301C401C501C6014208410460
:1007000040043F040319B42B2030C7000310BB0D75
:10071000BC0DBD0DBE0DC30DC40DC50DC60D4208EB
:100720004602031D9D2B41084502031D9D2B4008D9
:100730004402031D9D2B3F084302031CAE2B3F08C0
:10074000C3024008031C400FC4024108031C410FB0
:10075000C5024208031C420FC6020314F70DF80D30
:10076000F90DFA0DC70B862B43088000840A440854
:100770008000840A45088000840A460880007708C3
:10078000F900F80CF70CF80CF70C77089500F90D48
:10079000F90DF90DF90DCF30970530307905970433
:1007A0008A110A129C2C03081F3983008316051036
:1007B00083120514FF30A70019308316920004300D
:1007C00083129200271127088316870002308312B4
:1007D00095001C309700AB01AA01A901A801AF0147
:1007E000AE01AD01AC01B301B201B101B001B5017F
:1007F000B401B701B60183161F149F141F159F1172
:1008000007309C00831301308500103086000030D3
:1008100087008312A7008316850183128501831642
:10082000860183128601A700831687018312870140
:100830008B158B16C0308B0483161F109F141F1549
:100840009F151F1383121F139F1783169F13831265
:100850001F1483160108C7390838810083308312BA
:1008600081000030F8001F08C73978049F0002306B
:10087000F700F70B392C3C2C00001F151F193E2CDC
:100880001E08FA0083161E088312B8001E08B9005D
:10089000C1297A08AB007908AA007808A90077086E
:1008A000A8002B08BB002A08BA002908B9002808AC
:1008B000B800BF01BE012030BD008130BC00E02186
:1008C0007A08BB007908BA007808B9007708B80040
:1008D0007A08BF007908BE007808BD007708BC0020
:1008E000C301C030C2007F30C1008830C000552A2B
:1008F0007A08AF007908AE007808AD007708AC0040
:100900002F08BB002E08BA002D08B9002C08B8002B
:10091000BF01BE012030BD008330BC00E0217A0859
:10092000B3007908B2007808B1007708B000310848
:0C093000B9003008B800212B312C630006
:02400E00313F40
:00000001FF
;PIC16F877A
;CRC=71EA  CREATED="09-oct.-14 22:48"
