:1000000000308A00B02A0000FF00030E8301A10027
:100010000A08A0008A010408A2007708A300780853
:10002000A4007908A5007A08A6007B08A70083131E
:1000300083128B1E1D280B1934288B1D21280B18A9
:100040003728220884002308F7002408F800250830
:10005000F9002608FA002708FB0020088A00210E74
:100060008300FF0E7F0E09008A110A1265288A118B
:100070000A12F2280A108A100A11820744346534E1
:10008000733462346C346F34713475346534613474
:1000900064346F34203425344C34643420340A34CE
:1000A00000340A108A100A11820742346C346F340B
:1000B000713475346534613464346F3420342534DC
:1000C0004C34643420340A34003406308100B50ADC
:1000D0000319B60A3508FA3C031D7828B608031D33
:1000E000782808308606B70A0319B80AB601B501A0
:1000F0000B118A110A122128D4010408D3005410CC
:10010000831B5414CD1F8C28D317531ED30ACC093C
:10011000CD09CC0A0319CD0A4D0EF038CF00CF0718
:10012000E23ED000323ED2004D080F39D007D00752
:10013000D207E93ED100D107D1074C0E0F39D107C4
:10014000D207D10DD20DD209D20D4C080F39D207EA
:10015000CF0D0730CE000A30D207D103031CAC28E4
:10016000D107D003031CB028D007CF03031CB42849
:10017000CF07CE03031CB8284E308400831307300A
:100180005305531384035305031DCD28531A840AC2
:10019000531ACD282030F700EA2884075230040291
:1001A000031953170008F700031DDE28531BDE2830
:1001B000531AEE28D319DE282030E928D31FE62869
:1001C0002D30F70084035313D313EA28D3155312A9
:1001D0003030F70777080C1EEB289900840A531F6C
:1001E000CE280034061E14298610CB014B083A2075
:1001F000CB0AF70077080C1EFB2899000D304B0244
:10020000031DF628103084003808CD003708CC00D4
:100210007C2020300C1E0A2999000A300C1E0E2961
:100220009900B801B7013529061A35298614CB0182
:100230004B085120CB0AF70077080C1E1D299900A6
:100240000A304B02031D1829103084003808CD00F5
:100250003708CC007C2020300C1E2C2999000A3055
:100260000C1E30299900B801B7010B108A110A122F
:1002700021288E30F7003A08F8003908F900FA0111
:10028000F808031D4D297908F800F9010830F70234
:10029000F808031D4D29F70155290310F81B5429AF
:1002A000F90DF80DF7034D29F8138A110A12312BB5
:1002B00039080319C829C1003D080319C829C10715
:1002C000031869297F30C102031CC8290319C829F2
:1002D0006D298130C1070318C8294108F700F801CA
:1002E000F901FA013A08C500C5173B08C4003C08EB
:1002F000C3001830C100C201431C96294008FA0708
:10030000031C8829F90A031D8829F80A0319C21752
:100310003F08F907031C8F29F80A0319C2173E0882
:10032000BB00BB173B08F8070318C217C20DF80C37
:10033000F90CFA0CC50CC40CC30C0310C10B7B29BF
:100340000130F7070318C829F81BAD29C50DFA0DB0
:10035000F90DF80DF7030319C829C51FBE29FA0ABC
:10036000031DBE29F90A031DBE29F80A031DBE2973
:10037000F80CF90CFA0CF70A0319C8293A08C2005C
:100380003E08C206C21FC629F817CC29F813CC298B
:10039000F701F801F901FA0100343D080319922A26
:1003A000C90041080319922AC902031CDC297F30C5
:1003B000C9070318922AE2298130C902031C922A34
:1003C0000319922A4908F700F801F901FA01C80156
:1003D0003E08C700C7173F08C6004008C5001930CF
:1003E000C9004408C5020318052A0130C6020318D3
:1003F000052AC7020318052AC8020318052AC80AD5
:10040000C70AC60A4408C507372A4308C6020318A4
:10041000202A0130C7020318202AC8020318202A04
:10042000C80AC70A4308C6074408C507031C372A79
:10043000C60A031D372AC70A031D372AC80A372AE6
:1004400042088038C7020318362A0130C802031850
:10045000362AC80A42088038C7074308C607031C63
:10046000142AC70A031D142AC80A142A7A14C90BAD
:100470003A2A452A0310C50DC60DC70DC80D031035
:10048000FA0DF90DF80DCA0DF1294A1C4D2A031079
:10049000F80CF90CFA0CCA0C502AF7030319922A2B
:1004A000CA1B792A0310C50DC60DC70DC80D440817
:1004B000C5020318652A0130C6020318652AC7025F
:1004C0000318652AC802031C882A4308C6020318B9
:1004D000702A0130C7020318702AC802031C882A38
:1004E00042088038C7020318792A0130C802031C69
:1004F000882AFA0A031D882AF90A031D882AF80A9D
:10050000031D882AF70A0319922AF80CF90CFA0C31
:100510003E08C9004208C906C91F902AF817962A42
:10052000F813962AF701F801F901FA018A110A1263
:100530005F2B3A308400831300080319AD2A013081
:10054000F800F701F70BA22AF80BA12A4A30F700AE
:10055000F70BA82AAB2A800B9F2A8A110A12852B37
:10056000840183131F308305831603178711193005
:1005700003139900A63098009030831298008316D8
:1005800003170908C039890003131F129F12003096
:1005900003178800F91279160230FB000A30FA00BE
:1005A00003130508FD39850007080138FD39870068
:1005B0008312A801B501B601B701B8011030831646
:1005C0008600013085000030870083128601850196
:1005D00087018B15FF308316960483128B16C0306B
:1005E0008B04831603170908C0391F3889000313C9
:1005F0001F129F120030FF38031788008312031365
:100600001F139F1783169F1783121F1487100C3018
:100610009D000030F80004389200193083169200D3
:100620007F3083129B0083160108C0390338810094
:100630000630831281000030F8001F08C3397804A7
:100640009F000330F700F70B232B9F149F18262BD6
:100650001E08FA0083161E088312B9001E08BA008D
:1006600039297A08AC007908AB007808AA00770825
:10067000A9002C08BC002B08BB002A08BA002908D6
:10068000B900C001BF012030BE008130BD0058213B
:100690007708B9007808BA007908BB007A08BC006E
:1006A000C0007908BF007808BE007708BD00C4010B
:1006B000C030C3007F30C2008830C100CD297A0825
:1006C000B0007908AF007808AE007708AD003008B8
:1006D000BC002F08BB002E08BA002D08B900C001CD
:1006E000BF014830BE008630BD0058217A08B400F2
:1006F0007908B3007808B2007708B10004308606A4
:100700000230B900FA30BA00992AB90B822B1B2BA0
:02071000630084
:04400E00F12CFF3F53
:00000001FF
;PIC16F887
